:100000000C947C020C9499020C9499020C94990221
:100010000C9499020C9499020C9499020C949902F4
:100020000C9499020C9499020C942B1D0C94631D52
:100030000C9499020C9499020C9499020C949902D4
:100040000C9499020C9499020C9499020C949902C4
:100050000C9499020C9499020C9499020C94AF029E
:100060000C9499020C9499020C9499020C949902A4
:100070000C9499020C9499020C9499020C94990294
:100080000C9499020C9499020C9499020C94990284
:100090000C9499020C9499020C9499020C94990274
:1000A0000C9499020C9499020C94990205A84CCDD9
:1000B000B2D44EB93836A9020C50B9918688083CA2
:1000C000A6AAAA2ABE000000803F07634236B79B5B
:1000D000D8A71A39685618AEBAAB558C1D3CB7CCA8
:1000E0005763BD6DEDFD753EF6177231BF00000020
:1000F000803F08000000BE922449123EABAAAA2A03
:10010000BECDCCCC4C3E00000080BEABAAAAAA3E1D
:1001100000000000BF000000803F00000000000859
:100120004178D3BB4387D1133D190E3CC3BD4282F6
:10013000AD2B3E68EC8276BED98FE1A93E4C80EFB4
:10014000FFBE01C4FF7F3F00000000006E616E0033
:10015000696E660000407A10F35A00A0724E1809CA
:100160000010A5D4E80000E87648170000E40B541E
:10017000020000CA9A3B000000E1F50500008096ED
:100180009800000040420F000000A086010000001F
:10019000102700000000E8030000000064000000D9
:1001A00000000A00000000000100000000002C76A2
:1001B000D888DC674F0823DFC1DFAE59E1B1B796BD
:1001C000E5E3E453C63AE651997696E8E6C284261A
:1001D000EB898C9B62ED407C6FFCEFBC9C9F40F2F6
:1001E000BAA56FA5F490055A2AF75C936B6CF96772
:1001F0006DC11BFCE0E40D47FEF520E6B500D0ED37
:10020000902E0300943577050080841E080000209E
:100210004E0A000000C80C333333330F986E12833C
:100220001141EF8D2114893BE65516CFFEE6DB1810
:10023000D1844B381BF77C1D901DA4BBE4242032D5
:1002400084725E228100C9F124ECA1E53D27000102
:100250000000FB021200020000B80243000300008D
:10026000B40204010309049E021402030904860275
:10027000160303090478020C0C033100320033002A
:1002800034003500000016035500530042002000E2
:10029000530065007200690061006C0000001403E7
:1002A00059006F007500720020004E0061006D0063
:1002B000650000000403090409024300020100C0B4
:1002C00032090400000102020100052400100105AA
:1002D0002401010104240206052406000107058209
:1002E0000310004009040100020A00000007050392
:1002F00002400000070584024000001201000202D3
:10030000000010C0167A040001010203010001C1BF
:1003100012018036018136000000000000005F00FD
:10032000000007000700147F147F14242A7F2A127C
:10033000231308646236495522500005030000006B
:100340001C2241000041221C0014083E0814080829
:100350003E080800503000000808080808006060E7
:10036000000020100804023E5149453E00427F40F3
:100370000042615149462141454B311814127F100A
:1003800027454545393C4A4949300171090503363D
:1003900049494936064949291E00363600000056AB
:1003A00036000008142241001414141414004122D1
:1003B00014080201510906324979413E7E1111119A
:1003C0007E7F494949363E414141227F4141221CBD
:1003D0007F494949417F090909013E4149497A7FDD
:1003E0000808087F00417F41002040413F017F080D
:1003F0001422417F404040407F020C027F7F04086E
:10040000107F3E4141413E7F090909063E4151218D
:100410005E7F09192946464949493101017F010199
:100420003F4040403F1F2040201F3F4038403F6337
:100430001408146307087008076151494543007F99
:1004400041410002040810200041417F00040201E4
:100450000204404040404000010204002054545433
:10046000787F484444383844444420384444487FE2
:100470003854545418087E0901020C5252523E7FDF
:100480000804047800447D40002040443D007F1073
:1004900028440000417F40007C041804787C080454
:1004A000047838444444387C14141408081414188C
:1004B0007C7C080404084854545420043F444020E1
:1004C0003C4040207C1C2040201C3C4030403C44B0
:1004D000281028440C5050503C4464544C440008AC
:1004E00036410000007F0000004136080010080877
:1004F000100878464146780011241FBECFEFDAE09D
:10050000DEBFCDBF13E0A0E0B1E0E2EAF7E502C054
:1005100005900D92AA3CB107D9F729E0AAECB3E007
:1005200001C01D92AF34B207E1F70E945B1A0C9430
:100530008E2B0C9400008091FA039091FB0300979E
:1005400039F481E090E09093FB038093FA030895DF
:10055000019621F41092FB031092FA0308958F93F1
:100560008FB78F939F938091CA039091CB0301968D
:100570009093CB038093CA039F918F918FBF8F91EC
:100580001895CF92DF92EF92FF92CF936091CA03BA
:100590007091CB03C6B5072E000C880B990B0E94F7
:1005A000902520E030E040E853E40E9484266B016F
:1005B0007C016C2F70E090E080E00E9490259B0110
:1005C000AC01C701B6010E94702420E030E040E891
:1005D00054E40E94842620E034E244EF5AE40E946E
:1005E000E624CF91FF90EF90DF90CF900895FC012B
:1005F00001900020E9F73197BF01681B790B0C943B
:10060000451B9093BF008093CF000895229A239AB0
:1006100030E020E061E070E045B1CB01022E01C086
:10062000880F0A94EAF78095842385B92F5F3F4F9E
:100630002830310589F78598869820982198279841
:100640005098519808950E94781A0E94911A882310
:10065000E1F308950E94B41E83E08093BF008FEF02
:100660008093D10082E88093C0003F9A87E0809316
:10067000C1001092C300089514BC85E085BD81E0DF
:1006800080936E00789408958FE30E94D9200C9493
:100690000921E1E6F0E080E8808381E080830E9428
:1006A00006030E9444030E942A030E943C030C9408
:1006B000230320E030E040E752E46091E0037091D2
:1006C000E1038091E2039091E3030E94E6240E94FB
:1006D0005825CB0108956091E0037091E10380916A
:1006E000E2039091E3030E945825CB016CE370E094
:1006F0000E94922808950F9301E027E230E043E53D
:1007000050E067E270E090E080E00E940F1F0F91E0
:1007100008952F923F924F925F926F927F928F92A5
:100720009F92AF92BF92CF92DF92EF920F931F935F
:10073000CF93DF935C014A0129016801EB0110E0CE
:1007400000E0041515056CF1DF91CF911F910F9119
:10075000EF90DF90CF90BF90AF909F908F907F9061
:100760006F905F904F903F902F900895F30181918B
:100770003F01803241F041E0BE01C501820D931D71
:100780000E94E91E02C0EE20B1F3FFEF2F1A3F0ACC
:10079000281439045CF30F5F1F4FC80CD91C219635
:1007A000D0CF3601312C212CF3CF2F923F924F9294
:1007B0005F926F927F928F929F92AF92BF92CF92F1
:1007C000DF92EF92FF920F931F93CF93DF9300D0AE
:1007D00000D00F92CDB7DEB73801FB01EC19FD094F
:1007E000EA9D1001EB9D300CFA9D300C1124EA8D2E
:1007F000FB8DEE19FF092E0E3F1E8C01040F151FF5
:100800001B830A832B01420E531E97012A0D3B1DA9
:100810003D832C838C0C9D1C2A813B81821793077E
:100820000CF041C0FC01E20DF31DD3019B011AC085
:100830008E159F058CF00C811D818017910764F443
:100840002C153D054CF02815390534F40C91003277
:1008500019F00081003271F42F5F3F4FA40FB51FD4
:10086000EA0DFB1D241535051CF301961FEF611AD7
:10087000710AD2CF81E00F900F900F900F900F90E0
:10088000DF91CF911F910F91FF90EF90DF90CF906C
:10089000BF90AF909F908F907F906F905F904F90A0
:1008A0003F902F90089580E0E6CFCF93DF93CDB7B0
:1008B000DEB79E01215F3F4F4D855E856B857C8550
:1008C00089859A850E94A12A21E049855A856F81F0
:1008D00078858D819E810E949620DF91CF91089529
:1008E000EF920F931F9300911F0110912001EE24AE
:1008F000E39423E030E04EE050E06DE270E0809160
:100900001705909118050E9489031F910F91EF9090
:1009100008952F923F924F925F926F927F928F92A3
:100920009F92AF92BF92CF92DF92EF920F931F935D
:10093000CF93DF936091170570911805072E000C77
:10094000880B990B0E94902520E030E040EA50E4AB
:100950000E94702460930F06709310068093110616
:100960009093120680E090E0A0E3B2E48093D90473
:100970009093DA04A093DB04B093DC04609123012C
:1009800070912401072E000C880B990B0E94902572
:100990002BED3FE049E450E40E94842620E030E063
:1009A00044E353E40E94E6244B015C010E94E124ED
:1009B0002B013C01C501B4010E9441274B015C01A0
:1009C0008FE0282E86E0382E99EDC92E94E0D92E9E
:1009D0008601E1016991799189919991A30192012F
:1009E0000E947024688379838A839B83F8016191D4
:1009F0007191819191918F01A50194010E946F24C1
:100A0000F8016083718382839383F6E0CB31DF0743
:100A100009F7F60161917191819191916F01F10155
:100A200041905190619071901F01009121011091AE
:100A300022010E9458254B01C301B2010E94582592
:100A4000CB01EE24E39421E030E044E050E0B40137
:100A50000E948903F9EECF16F4E0DF06D1F6DF91AC
:100A6000CF911F910F91EF90DF90CF90BF90AF90FB
:100A70009F908F907F906F905F904F903F902F90BE
:100A80000895EF92FF920F931F93CF93DF934091BE
:100A9000F8035091F903FC01EE0FFF1FEE0FFF1F4B
:100AA000DF01A75DB94FEF01CF59DB4FBF01695699
:100AB0007A4F9F012F55394F7901841795076CF0B4
:100AC000415051095093F9034093F803DF91CF91BE
:100AD0001F910F91FF90EF900895019614960D913C
:100AE0001D912D913C9117970D931D932D933D933F
:100AF0000C811D812E813F8109931993299339938C
:100B0000FB01048115812681378101931193219383
:100B10003193BF01F701048115812681378101934B
:100B20001193219331937F01C8CF80E00E94B81EBA
:100B30006FEF73E0681B790B90E080E00E948E25D8
:100B40002FE03CE340EF5DE30E94842620E030E0AC
:100B500040EF51E40E9470240E94582570932401B4
:100B60006093230108958F929F92AF92BF92CF928C
:100B7000DF92EF92FF920F931F93CF93DF936B015E
:100B80007C010091F8031091F9030E3111050CF06E
:100B900073C02091F4033091F5034091F603509116
:100BA000F7030E946F242DEC3CEC4CE45EE30E94C2
:100BB0007F2618160CF060C0E801CC0FDD1FCC0FAB
:100BC000DD1FCE01875D994F5C0120E030E040E8F9
:100BD0005FE360911B0670911C0680911D06909149
:100BE0001E060E947024F5016083718382839383C3
:100BF000FE01EF59FB4F80E090E0A4E2B2E4808375
:100C00009183A283B3836091230170912401072E05
:100C1000000C880B990B0E9490252BED3FE049E4D6
:100C200050E40E94842620E030E044E353E40E9434
:100C3000E6244B015C010E94E124FE01E956FA4FD3
:100C40006083718382839383C501B4010E9441272D
:100C5000CF55D94F688379838A839B830F5F1F4F5A
:100C60001093F9030093F803C092F403D092F503B4
:100C7000E092F603F092F703DF91CF911F910F916D
:100C8000FF90EF90DF90CF90BF90AF909F908F90AC
:100C900008954F925F926F927F928F929F92AF9240
:100CA000BF92CF92DF92EF92FF920F931F93CF9359
:100CB000DF9381E6482E84E0582E99E2692E96E073
:100CC000792ED0E0C0E08091F8039091F903C81725
:100CD000D9078CF0DF91CF911F910F91FF90EF908A
:100CE000DF90CF90BF90AF909F908F907F906F904C
:100CF0005F904F900895F20161917191819191916E
:100D00002F01F301C190D190E190F1903F0100914A
:100D10001D0110911E010E9458254B01C701B6010B
:100D20000E945825CB01EE24E39422E030E042E01B
:100D300050E0B4010E9489032196C5CF2F923F92C3
:100D40004F925F926F927F928F929F92AF92BF92DB
:100D5000CF92DF92EF92FF920F931F93CF93DF9387
:100D600087E9282E85E0382ED0E0C0E010E000E0D2
:100D70008091F8039091F903081719079CF0DF910F
:100D8000CF911F910F91FF90EF90DF90CF90BF9088
:100D9000AF909F908F907F906F905F904F903F901B
:100DA0002F900895CE01875D994F5C01F10161910B
:100DB0007191819191911F01F501208131814281D1
:100DC00053810E9470246B017C0120E030E048EAEE
:100DD00052E40E947F26181624F120E030E0A90199
:100DE000C701B6010E94DC2487FD1BC0CE018F59CC
:100DF0009B4F4C01FE01EF55F94F2081318142811B
:100E00005381FC0160817181828193810E946F24F2
:100E10002B013C0120E030E0A9010E94DC2487FF87
:100E200007C0C8010E9441050F5F1F4F2496A0CF45
:100E3000F501C082D182E282F382F40140825182C4
:100E400062827382F1CF409117055091180520916D
:100E5000FA033091FB03240F351F2734310520F0AE
:100E60001092FB031092FA038091FA039091FB0316
:100E7000840F951F9093180580931705089583E2BA
:100E800090E090931805809317050895823711F428
:100E90000C949B028091FA039091FB03009739F424
:100EA0008FEF9FEF9093FB038093FA0308950197D0
:100EB00021F41092FB031092FA0308952091F2039B
:100EC0003091F303FC01EE0FFF1FEE0FFF1FDF0158
:100ED000AF5FBA4FE75BF84F821793073CF02150A2
:100EE00031093093F3032093F20308950196149689
:100EF0004D915D916D917C9117974D935D936D939D
:100F00007D934481558166817781419351936193AB
:100F10007193E2CFEF92FF920F931F93CF93DF93E2
:100F20004091F0035091F103FC01EE0FFF1FEE0F13
:100F3000FF1FDF01A85BBB4FEF01C158DA4FBF01B4
:100F400067517B4F9F01205D3B4F790184179507C7
:100F50006CF0415051095093F1034093F003DF913D
:100F6000CF911F910F91FF90EF90089501961496E5
:100F70000D911D912D913C9117970D931D932D93DC
:100F80003D930C811D812E813F81099319932993F3
:100F90003993FB01048115812681378101931193D7
:100FA00021933193BF01F701048115812681378197
:100FB00001931193219331937F01C8CFEF92FF9258
:100FC0000F931F93CF93DF934091EE035091EF0364
:100FD000FC01EE0FFF1FEE0FFF1FDF01A75EB84FF2
:100FE000EF01C050DC4FBF01675E7A4F9F01235B6A
:100FF0003A4F7901841795076CF04150510950938D
:10100000EF034093EE03DF91CF911F910F91FF907B
:10101000EF900895019614960D911D912D913C919C
:1010200017970D931D932D933D930C811D812E8158
:101030003F810993199329933993FB010481158109
:10104000268137810193119321933193BF01F701D9
:101050000481158126813781019311932193319366
:101060007F01C8CF2F923F924F925F926F927F92F3
:101070008F929F92AF92BF92CF92DF92EF92FF92A8
:101080000F931F93CF93DF93CDB7DEB72C970FB697
:10109000F894DEBF0FBECDBF98878F837A876987AC
:1010A0008091F2039091F3039E838D8390911B01B5
:1010B0009B87E0911C01EC8789E497E09A83898300
:1010C000E1E0F5E0FC83EB83312C212CED81FE8106
:1010D0002E163F06D4F080E02C960FB6F894DEBFB3
:1010E0000FBECDBFDF91CF911F910F91FF90EF9079
:1010F000DF90CF90BF90AF909F908F907F906F9038
:101100005F904F903F902F900895E981FA8161910F
:10111000719181919191FA83E983EB81FC81C19076
:10112000D190E190F190FC83EB830E9458252B0134
:10113000C701B6010E945825CB01FC85FF932B8582
:101140002F9327E0822E912C37E0A32EB12CC98457
:10115000DA84EF80F8840B851C8527E030E047E0D7
:1011600050E0B2010E94D5030F900F90811104C08E
:101170008FEF281A380AAACF81E0AECF0297CCF4BD
:1011800083E090E02A9A2FE73AE146E02150304090
:101190004040E1F700C000002A982FE73AE146E01E
:1011A000215030404040E1F700C00000019751F766
:1011B000089583E090E02B9A2FE73AE146E0215032
:1011C00030404040E1F700C000002B982FE73AE1A3
:1011D00046E0215030404040E1F700C00000019758
:1011E00051F708954F925F926F927F928F929F92E4
:1011F000AF92BF92CF92DF92EF92FF920F931F9325
:10120000CF93DF930E9443296EE470E00E949228FE
:10121000EC01BC01990F880B990B0E9490256093FB
:10122000010570930205809303059093040580E007
:1012300090E0A0E0B1EC8093490790934A07A09317
:101240004B07B0934C078091F2039091F303019602
:101250009093F3038093F20391E080E0A7970CF45E
:1012600090E0C92FD82F9EE4492E512C812C912C2F
:10127000A12C21ECB22E8091F2039091F3030397FD
:101280009CF0CE01DF91CF911F910F91FF90EF90D5
:10129000DF90CF90BF90AF909F908F907F906F9096
:1012A0005F904F900C94BE080E944329B2010E94A7
:1012B00092286C0168EF7FEF0E9432088111DBCF2A
:1012C0000091F2031091F3037801EE0CFF1CEE0C79
:1012D000FF1CC7018F5F9A4F3C01B6010D2C000C1B
:1012E000880B990B0E949025F301608371838283A0
:1012F0009383F701E75BF84F80829182A282B382E9
:101300000F5F1F4F1093F3030093F203F7E2CF1622
:10131000D1040CF4B0CF2196AECF4F925F926F9272
:101320007F928F929F92AF92BF92CF92DF92EF9275
:10133000FF920F931F93CF93DF9389E4482E87E0AA
:10134000582E91E0692E95E0792ED0E0C0E0809192
:10135000F2039091F303C817D9078CF0DF91CF9176
:101360001F910F91FF90EF90DF90CF90BF90AF90C3
:101370009F908F907F906F905F904F900895F201B3
:1013800061917191819191912F01F301C190D1905F
:10139000E190F1903F0100911B0110911C010E940E
:1013A00058254B01C701B6010E945825CB01EE24F8
:1013B000E39427E030E047E050E0B4010E94890365
:1013C0002196C5CF4F925F926F927F928F929F929C
:1013D000AF92BF92CF92DF92EF92FF920F931F9343
:1013E000CF93DF938FE7482E85E0582E98E4692E3F
:1013F00094E0792ED0E0C0E08091F0039091F10369
:10140000C817D9078CF0DF91CF911F910F91FF90F2
:10141000EF90DF90CF90BF90AF909F908F907F9094
:101420006F905F904F900895F20161917191819159
:1014300091912F01F301C190D190E190F1903F0182
:101440000091190110911A010E9458254B01C70102
:10145000B6010E945825CB01EE24E39425E030E04C
:1014600045E050E0B4010E9489032196C5CF4F9218
:101470005F926F927F928F929F92AF92BF92CF9224
:10148000DF92EF92FF920F931F93CF93DF9380E051
:10149000482E84E0582E99E1692E97E0792ED0E00D
:1014A000C0E08091EE039091EF03C817D9078CF04C
:1014B000DF91CF911F910F91FF90EF90DF90CF9030
:1014C000BF90AF909F908F907F906F905F904F9064
:1014D0000895F20161917191819191912F01F30130
:1014E000C190D190E190F1903F01009117011091CE
:1014F00018010E9458254B01C701B6010E945825CA
:10150000CB01EE24E39423E030E043E050E0B4016B
:101510000E9489032196C5CFCF92DF92EF92FF926E
:101520000F931F93CF93DF9320E030E040E050E42F
:101530006091E0037091E1038091E2039091E303F5
:101540000E947F2609E417E0D0E0C0E018163CF1C5
:10155000DF91CF911F910F91FF90EF90DF90CF908F
:101560000895F801C080D180E280F38020E030E06F
:1015700044E052E4C701B6010E947F2687FD17C0F0
:10158000CE010E945E0780910501909106010197AE
:10159000909306018093050121960C5F1F4F809167
:1015A000F2039091F303C817D907DCF2D1CFA7015A
:1015B0009601609101017091020180910301909167
:1015C00004010E947024F8016083718382839383F5
:1015D000E3CF2F923F924F925F926F927F928F92C2
:1015E0009F92AF92BF92CF92DF92EF92FF920F93B2
:1015F0001F93CF93DF9339EE232E34E0332E08E48C
:1016000014E0D0E0C0E08091F0039091F103C8179E
:10161000D9079CF0DF91CF911F910F91FF90EF9030
:10162000DF90CF90BF90AF909F908F907F906F9002
:101630005F904F903F902F900895F101408051802E
:1016400062807380C0900101D0900201E09003019C
:10165000F0900401A7019601C301B2010E94842603
:10166000F80120813181428153810E9470244B0115
:101670005C0120E030E040EA52E40E947F26181628
:101680004CF020E030E0A901C501B4010E94DC2447
:1016900087FF13C0C701B6019058A30192010E94B1
:1016A0008426F10160837183828393832196F4E021
:1016B0002F0E311C0C5F1F4FA6CFCE01880F991F34
:1016C000880F991F9C0121583A4F3901805D9B4F2B
:1016D000FC012081318142815381C701B6010E9402
:1016E0008426F30120813181428153810E9470243C
:1016F0006B017C0120E030E04CE052E40E947F2648
:1017000087FD0DC0CE010E948A078091050190914E
:10171000060101979093060180930501C7CFF80158
:1017200080829182A282B382F301C082D182E2825E
:10173000F382BCCF2F923F924F925F926F927F9233
:101740008F929F92AF92BF92CF92DF92EF92FF92D1
:101750000F931F93CF93DF9339E1232E35E0332E80
:1017600009E117E0D0E0C0E08091EE039091EF0333
:10177000C817D9079CF0DF91CF911F910F91FF906F
:10178000EF90DF90CF90BF90AF909F908F907F9021
:101790006F905F904F903F902F900895F10140809F
:1017A000518062807380C0900101D0900201E0906E
:1017B0000301F0900401A7019601C301B2010E9448
:1017C0008426F80120813181428153810E94702456
:1017D0004B015C0120E030E044EA52E40E947F26A5
:1017E00018164CF020E030E0A901C501B4010E94B8
:1017F000DC2487FF13C0C701B6019058A3019201F2
:101800000E948426F10160837183828393832196F1
:10181000F4E02F0E311C0C5F1F4FA6CFCE01880FB6
:10182000991F880F991F9C0120503C4F3901835B01
:101830009A4FFC012081318142815381C701B60159
:101840000E948426F30120813181428153810E94CC
:1018500070246B017C0120E030E044E152E40E94FE
:101860007F2687FD0DC0CE010E94DE078091050115
:101870009091060101979093060180930501C7CFCF
:10188000F80180829182A282B382F301C082D18268
:10189000E282F382BCCF2F923F924F925F926F927F
:1018A0007F928F929F92AF92BF92CF92DF92EF92F0
:1018B000FF920F931F93CF93DF9300D000D0CDB74B
:1018C000DEB71C010E9443296FE170E00E9492285C
:1018D0003C012CE3620E711C0E9443296FE170E011
:1018E0000E949228FC01E65AFF4FFA83E9835101D6
:1018F000AA0CBB1CAA0CBB1CF501EF5FFA4FC08001
:10190000D180E280F38020E030E048E252E4C70179
:10191000B6010E947F260091F0031091F103181682
:101920000CF0C1C0F801EE0FFF1FEE0FFF1FE85BC8
:10193000FB4FC082D182E282F382F501E75BF84F70
:1019400080809180A280B3809801220F331F220FE4
:10195000331F3C832B83F901E158FA4F8082918237
:10196000A282B382B301770C880B990B0E94902559
:101970002BED3FE049E450E40E94842620E030E073
:1019800044E353E40E94E6242B013C010E94E1243D
:10199000EB81FC81E751FB4F6083718382839383EA
:1019A000C301B2010E944127EB81FC81E05DFB4F46
:1019B000608371838283938320E030E048E252E4C5
:1019C000C701B6010E947F2698012F5F3F4F220F6B
:1019D000331F220F331F3C832B8318160CF07BC060
:1019E000285B3B4F390120E030E040EA50E4C7017A
:1019F000B6010E946F24F301608371838283938315
:101A0000EB81FC81E158FA4F80829182A282B382FD
:101A100029813A81B901330F880B990B0E949025D7
:101A20002BED3FE049E450E40E94842620E030E0C2
:101A300044E353E40E94E6246B017C010E94E1240C
:101A4000EB81FC81E751FB4F608371838283938339
:101A5000C701B6010E944127EB81FC81E05DFB4F8D
:101A600060837183828393830E5F1F4F1093F10312
:101A70000093F003C1010F900F900F900F90DF9132
:101A8000CF911F910F91FF90EF90DF90CF90BF907B
:101A9000AF909F908F907F906F905F904F903F900E
:101AA0002F900C945E079801220F331F220F331FD3
:101AB000285B3B4F3C832B8320E030E040EA50E43E
:101AC000C701B6010E947024EB81FC8160837183A1
:101AD0008283938332CFEB81FC81E85BFB4FC08232
:101AE000D182E282F3828CCF2F923F924F925F920B
:101AF0006F927F928F929F92AF92BF92CF92DF921E
:101B0000EF92FF920F931F93CF93DF93CDB7DEB782
:101B10002A970FB6F894DEBF0FBECDBF1C010E94FE
:101B200043296FE170E00E9492284C012CE3820E61
:101B3000911C0E9443296FE170E00E949228DC0111
:101B4000A65ABF4FB887AF835101AA0CBB1CAA0C81
:101B5000BB1CF501E85BFB4FC080D180E280F380C5
:101B600020E030E048E252E4C701B6010E947F263F
:101B7000E091EE03F091EF03FA87E98718160CF075
:101B8000D5C0EE0FFF1FEE0FFF1FE75EF84FC082BC
:101B9000D182E282F382F501E158FA4F808191818E
:101BA000A281B38189839A83AB83BC8309851A851B
:101BB000000F111F000F111FF801E050FC4F808330
:101BC0009183A283B383B401990C880B990B0E9473
:101BD00090252BED3FE049E450E40E94842620E06C
:101BE00030E044E353E40E94E6242B013C010E94D0
:101BF000E124D801A75EBA4FBE83AD832D913D91FC
:101C00004D915C910E9470244B015C01ED81FE813D
:101C100080829182A282B382C301B2010E944127D5
:101C20009B01AC01035B1A4FC501B4010E947024F3
:101C3000D8016D937D938D939C93139709851A8595
:101C40000F5F1F4F000F111F000F111FF801E75EFC
:101C5000F84FC082D182E282F382F801E050FC4F5B
:101C600089819A81AB81BC8180839183A283B38374
:101C7000AF81B885BD01BB0F880B990B0E949025E1
:101C80002BED3FE049E450E40E94842620E030E060
:101C900044E353E40E94E6244B015C010E94E124EA
:101CA000F801E75EFA4F3F01208131814281538183
:101CB0000E9470246B017C01D301CD92DD92ED92E4
:101CC000FC921397C501B4010E9441279B01AC010E
:101CD000035B1A4FC701B6010E947024F8016083AC
:101CE00071838283938329853A852E5F3F4F30939A
:101CF000EF032093EE03C1012A960FB6F894DEBFDE
:101D00000FBECDBFDF91CF911F910F91FF90EF904C
:101D1000DF90CF90BF90AF909F908F907F906F900B
:101D20005F904F903F902F900C948A0709851A85F9
:101D3000000F111F000F111F075E184F20E030E049
:101D400040EA50E4C701B6010E947024D8016D93A7
:101D50007D938D939C9313971ECF0C94DE07CF92A7
:101D6000DF92EF92FF920F931F93CF93DF937B014C
:101D70008E34910580F56132710568F5C091F203EA
:101D8000D091F303C330D10534F58E01000F111F3C
:101D9000000F111FF801EF5FFA4F6F01BC01990F9F
:101DA000880B990B0E949025F601608371838283D2
:101DB0009383075B184FB701FF0C880B990B0E94A8
:101DC0009025F80160837183828393832196D09359
:101DD000F303C093F203DF91CF911F910F91FF9016
:101DE000EF90DF90CF900895CF92DF92EF92FF9225
:101DF0000F931F93CF93DF936B018035910508F00C
:101E000045C06332710508F041C00091F0031091A4
:101E1000F10306301105D4F5E801CC0FDD1FCC0F1E
:101E2000DD1FFE01E85BFB4F7F01BC01990F880BB2
:101E3000990B0E949025F7016083718382839383BD
:101E40009E0121583A4F7901B601DD0C880B990BA0
:101E50000E949025F7016083718382839383FE0142
:101E6000E751FB4F1082118212821382C05DDB4F5B
:101E700080E090E0A0E8BFE388839983AA83BB83D6
:101E80000F5F1F4F1093F1030093F003DF91CF9189
:101E90001F910F91FF90EF90DF90CF900895CF9218
:101EA000DF92EF92FF920F931F93CF93DF936B011B
:101EB0008235910508F045C06532710508F041C0D2
:101EC0000091EE031091EF030C301105D4F5E801F9
:101ED000CC0FDD1FCC0FDD1FFE01E75EF84F7F0149
:101EE000BC01990F880B990B0E949025F701608324
:101EF0007183828393839E0120503C4F7901B60108
:101F0000DD0C880B990B0E949025F701608371838B
:101F100082839383FE01E75EFA4F10821182128260
:101F20001382C35BDA4F80E090E0A0E8BFE38883D0
:101F30009983AA83BB830F5F1F4F1093EF03009316
:101F4000EE03DF91CF911F910F91FF90EF90DF9003
:101F5000CF9008952F923F924F925F926F927F920F
:101F60008F929F92AF92BF92CF92DF92EF92FF92A9
:101F70000F931F93CF93DF93CDB7DEB764970FB660
:101F8000F894DEBF0FBECDBF29E437E03C832B833E
:101F900081E095E09E838D83312C212C8091F2038A
:101FA0009091F303281639060CF09CC08091F80339
:101FB0009091F9039C878B8790911D01998BE091FB
:101FC0001E01EA8B20911B0130911C013A87298761
:101FD00089E296E09A838983E1E6F4E0F887EF836B
:101FE0001C8A1B8A0AC08B899C8901969C8B8B8BCF
:101FF000E981FA813496FA83E9832B853C858B89C4
:102000009C89821793070CF05EC0EF81F885C19020
:10201000D190E190F190F887EF8320E030E0A901C2
:10202000C701B6010E947F2687FDDDCFC701B6013B
:102030000E9458256B01E981FA816081718182815A
:1020400093810E9458252B01EB81FC816081718175
:10205000828193810E9458256D877E878F87988B18
:10206000ED81FE8160817181828193810E9458257A
:10207000CB01FA89FF9329892F9322E0822E912C9C
:1020800032E0A32EB12C720109851A8527E030E0D9
:1020900047E050E06D857E850E94D5030F900F903C
:1020A000882309F4A0CF8B899C890E944105C10136
:1020B0000E944B0C8091E9039091EA030196909362
:1020C000EA038093E9039FEF291A390AEB81FC8127
:1020D0003496FC83EB832D813E812C5F3F4F3E8302
:1020E0002D835CCF64960FB6F894DEBF0FBECDBFD4
:1020F000DF91CF911F910F91FF90EF90DF90CF90E4
:10210000BF90AF909F908F907F906F905F904F9017
:102110003F902F9008952F923F924F925F926F922F
:102120007F928F929F92AF92BF92CF92DF92EF9267
:10213000FF920F931F93CF93DF93CDB7DEB76497D2
:102140000FB6F894DEBF0FBECDBF2FE735E03C835E
:102150002B8388E494E09E838D83312C212C809105
:10216000F0039091F103281639060CF09CC0809181
:10217000F8039091F9039C878B8790911D01998BAF
:10218000E0911E01EA8B2091190130911A013A87E2
:10219000298789E296E09A838983E1E6F4E0F8876B
:1021A000EF831C8A1B8A0AC08B899C8901969C8BB1
:1021B0008B8BE981FA813496FA83E9832B853C8500
:1021C0008B899C89821793070CF05EC0EF81F8859C
:1021D000C190D190E190F190F887EF8320E030E05A
:1021E000A901C701B6010E947F2687FDDDCFC70187
:1021F000B6010E9458256B01E981FA8160817181E5
:10220000828193810E9458252B01EB81FC816081A2
:102210007181828193810E9458256D877E878F8787
:10222000988BED81FE8160817181828193810E9412
:102230005825CB01FA89FF9329892F9322E0822E1A
:10224000912C32E0A32EB12C720109851A8525E06C
:1022500030E045E050E06D857E850E94D5030F900B
:102260000F90882309F4A0CF8B899C890E94410597
:10227000C1010E94740D8091E9039091EA030296D6
:102280009093EA038093E9039FEF291A390AEB81BF
:10229000FC813496FC83EB832D813E812C5F3F4F84
:1022A0003E832D835CCF64960FB6F894DEBF0FBEDD
:1022B000CDBFDF91CF911F910F91FF90EF90DF90F5
:1022C000CF90BF90AF909F908F907F906F905F90D6
:1022D0004F903F902F9008952F923F924F925F9290
:1022E0006F927F928F929F92AF92BF92CF92DF9226
:1022F000EF92FF920F931F93CF93DF93CDB7DEB78B
:1023000064970FB6F894DEBF0FBECDBF20E034E077
:102310003C832B8389E197E09E838D83312C212C94
:102320008091EE039091EF03281639060CF09CC0C3
:102330008091F8039091F9039C878B8790911D0100
:10234000998BE0911E01EA8B2091170130911801C1
:102350003A87298789E296E09A838983E1E6F4E067
:10236000F887EF831C8A1B8A0AC08B899C89019697
:102370009C8B8B8BE981FA813496FA83E9832B85D8
:102380003C858B899C89821793070CF05EC0EF8196
:10239000F885C190D190E190F190F887EF8320E02B
:1023A00030E0A901C701B6010E947F2687FDDDCF7D
:1023B000C701B6010E9458256B01E981FA8160814D
:1023C0007181828193810E9458252B01EB81FC81D0
:1023D00060817181828193810E9458256D877E87FB
:1023E0008F87988BED81FE816081718182819381DD
:1023F0000E945825CB01FA89FF9329892F9322E067
:10240000822E912C32E0A32EB12C720109851A85FF
:1024100023E030E043E050E06D857E850E94D503E7
:102420000F900F90882309F4A0CF8B899C890E947C
:102430004105C1010E94DE078091E9039091EA0302
:1024400004969093EA038093E9039FEF291A390ACF
:10245000EB81FC813496FC83EB832D813E812C5FE4
:102460003F4F3E832D835CCF64960FB6F894DEBF5A
:102470000FBECDBFDF91CF911F910F91FF90EF90D5
:10248000DF90CF90BF90AF909F908F907F906F9094
:102490005F904F903F902F900895209123013091AD
:1024A00024018AE590E0821B930B08952F923F92BE
:1024B0004F925F926F927F928F929F92AF92BF9254
:1024C000CF92DF92EF92FF920F931F93CF93DF9300
:1024D000CDB7DEB7CC5FD1090FB6F894DEBF0FBE23
:1024E000CDBF8E010F5F1F4F8F3609F07DC030903A
:1024F000F8032090F9035090EE034090EF037090A2
:10250000F0036090F1039090F2038090F303B09099
:10251000E903A090EA0380910501C550DF4F88834D
:10252000CB5FD04090910601C450DF4F9883CC5FC1
:10253000D0400E946B03D82EC92E0E945903F82E5A
:10254000E92E20E030EC4FE754E4609101017091F6
:10255000020180910301909104010E94842620E0F1
:1025600030E040E05FE30E9484269F938F937F9347
:102570006F9320912301309124018AE590E0821B22
:10258000930B9F938F932F923F924F925F926F92F4
:102590007F928F929F92AF92BF92C450DF4F8881FB
:1025A000CC5FD0408F93C550DF4F9881CB5FD04038
:1025B0009F93CF92DF92EF92FF9288E491E09F93F6
:1025C0008F9380910C018F9380910B018F931F92B9
:1025D0008AEF8F931F930F930E94712A0FB6F8947E
:1025E000DEBF0FBECDBF81C0833709F069C0309018
:1025F000F8032090F9035090EE034090EF037090A1
:10260000F0036090F1039090F2038090F303B09098
:10261000E903A090EA0390910501C550DF4F98832C
:10262000CB5FD04080910601C450DF4F8883CC5FE0
:10263000D0400E946B03D82EC92E0E945903F82E59
:10264000E92E20E030EC4FE754E4609101017091F5
:10265000020180910301909104010E94842620E0F0
:1026600030E040E05FE30E9484269F938F937F9346
:102670006F9320912301309124018AE590E0821B21
:10268000930B9F938F932F923F924F925F926F92F3
:102690007F928F929F92AF92BF92C450DF4F9881EA
:1026A000CC5FD0409F93C550DF4F8881CB5FD04037
:1026B0008F93CF92DF92EF92FF9282E591E07FCFEE
:1026C000883681F580910A018F93809109018F935B
:1026D0001F928AEF8F931F930F930E94712A0F907E
:1026E0000F900F900F900F900F90C8010E94F7026B
:1026F000C450DF4F0FB6F894DEBF0FBECDBFDF91E1
:10270000CF911F910F91FF90EF90DF90CF90BF90EE
:10271000AF909F908F907F906F905F904F903F9081
:102720002F9008953090F8032090F9035090EE0315
:102730004090EF037090F0036090F1039090F203EB
:102740008090F303B090E903A090EA039091050113
:10275000C550DF4F9883CB5FD04080910601C450B5
:10276000DF4F8883CC5FD0400E946B03D82EC92EE8
:102770000E945903F82EE92E20E030EC4FE754E494
:102780006091010170910201809103019091040117
:102790000E94842620E030E040E05FE30E9484262F
:1027A0009F938F937F936F93209123013091240106
:1027B0008AE590E0821B930B9F938F932F923F9219
:1027C0004F925F926F927F928F929F92AF92BF9241
:1027D000C450DF4F9881CC5FD0409F93C550DF4FEE
:1027E0008881CB5FD0408F93CF92DF92EF92FF92A0
:1027F00089E591E0E4CE81E00E94B81EBC0190E042
:1028000080E00E948E259B01AC010E94702420E094
:1028100030EC4FE754E40E94E6246093010170938A
:10282000020180930301909304010895811524E02F
:102830009207C0F4BC01990F880B990B0E94902558
:102840009B01AC010E94702420E030EC4FE754E47F
:102850000E94E624609301017093020180930301BA
:1028600090930401089581E0809308010E94C102C1
:102870006093DC037093DD038093DE039093DF03AA
:10288000089580910701882369F10E94C102609335
:10289000490570934A0580934B0590934C050E941F
:1028A0005F25CB010E9448298091FA039091FB0398
:1028B000892B51F40E9443296AE070E00E9492281B
:1028C00080FD0CC00E949B0289E60E945612109265
:1028D0000701109208011092E80308958CE60E9407
:1028E0004607F2CF0E94C1022091DC033091DD0344
:1028F0004091DE035091DF030E946F249B01AC01E5
:102900006091E4037091E5038091E6039091E70301
:102910000E9470246093E4037093E5038093E603C0
:102920009093E703D6CF81E08093ED038091080177
:1029300081110AC00E94C1026093DC037093DD0321
:102940008093DE039093DF0308951092ED0380914E
:102950000801811120C00E94C1022091DC03309146
:10296000DD034091DE035091DF030E946F249B0141
:10297000AC016091E4037091E5038091E6039091CE
:10298000E7030E9470246093E4037093E50380934F
:10299000E6039093E70308950E94E11E21E04DE0D5
:1029A00051E068E070E090E080E00E94962021E035
:1029B00046E651E060E170E090E080E00E94962001
:1029C0000E947B030E9470040E9489040C94CE1E16
:1029D0008734910540F49093180580931705109261
:1029E000FB031092FA03089583E08093BF008FEFFA
:1029F0008093CF0010921805109217051092FB03D8
:102A00001092FA030E949B020E94CC140E9423079A
:102A10008091170590911805863491057CF08CE61D
:102A20000E9446077E9B10C02FEF89E698E1215057
:102A300080409040E1F700C0000008951816190684
:102A40008CF30E949B02EECF0E94941A8237E1F62B
:102A5000EBCF0E94E11E21E04DE051E064E170E027
:102A60008AE090E00E9496202FEF80E792E02150CC
:102A700080409040E1F700C000006DE080E00E94DF
:102A8000BB200E94CE1E81E08093EB0308959C0141
:102A9000245C3F4F2937310540F42AE530E0281BFC
:102AA000390B309324012093230108952091D20300
:102AB0003091D3034091D4035091D5036091E0034A
:102AC0007091E1038091E2039091E3030E946F24EF
:102AD00020E030E040E85FE30E947F26181614F4FF
:102AE0001092DB0308951092F9031092F8031092EC
:102AF000F3031092F2031092F1031092F00310927C
:102B0000EF031092EE038AE590E090932401809306
:102B1000230185E090E090930601809305011092D7
:102B2000E0031092E1031092E2031092E30310928B
:102B3000E4031092E5031092E6031092E70310926B
:102B4000DC031092DD031092DE031092DF0310927B
:102B5000490510924A0510924B0510924C051092AF
:102B6000F4031092F5031092F6031092F7031092FB
:102B7000EA031092E90380E090E0A0E8BFE38093CD
:102B8000010190930201A0930301B09304011092FC
:102B9000FB031092FA031092DB031092DA031092F7
:102BA000EB031092E8031092ED0381E0809308019B
:102BB000809307011092D0031092EC03089583E2F2
:102BC00090E090931805809317051092FB031092E4
:102BD000FA030E9473156CE080E00C94BB200F9305
:102BE0001F93CF93DF93CDB7DEB7A1970FB6F894BD
:102BF000DEBF0FBECDBF80910801882309F453C00A
:102C00000E94E11E0E946B03182F092F0E94590396
:102C10000F931F939F938F9384E791E09F938F93DC
:102C20001F921AE01F93CE0148969F938F931F9295
:102C30001F921F921F920E945504809106018F934C
:102C4000809105018F938EE791E09F938F931F9260
:102C50008BE08F93CE010D969F938F931F921F93BE
:102C60001F921F920E9455048091EA038F938091D6
:102C7000E9038F9387E891E09F938F931F928CE0F5
:102C80008F93CE0101969F938F931F9284E18F9330
:102C90001F921F920E9455040FB6F894DEBF0FBE1C
:102CA000CDBF0E94CE1EA1960FB6F894DEBF0FBE18
:102CB000CDBFDF91CF911F910F9108950E94E11E2A
:102CC0008091E803882321F00E94EF150C94CE1E1A
:102CD0000E947B03809108019091ED03892B81F480
:102CE0000E9423070E949E060E948C0A0E94E90A05
:102CF0000E949A0B0E94AA0F0E948B100E946C11D6
:102D00000E9449060E948D090E94E2090E94370A2A
:102D10000E9470040E948904D9CF0E94E11E0E9483
:102D2000F4140E94E11E0E94DF150E947B030E94A2
:102D300070040E9489040E945E160C94CE1E80913D
:102D4000CE039091CF03059734F48091CC039091FA
:102D5000CD03059734F11092ED030E94C10220913A
:102D6000DC033091DD034091DE035091DF030E94CC
:102D70006F249B01AC016091E4037091E5038091A5
:102D8000E6039091E7030E9470246093E40370933C
:102D9000E5038093E6039093E7031092CF0310922C
:102DA000CE0308950C94DF15CF92DF92EF92FF923D
:102DB000CF93DF938FE60E94561281E08093EC035D
:102DC0000E94C1026B017C012B9A2A9ACFEFD3E0BB
:102DD0000E94C102A70196010E946F2420E030E00A
:102DE00040E050E40E94DC2487FD0DC02A982B9817
:102DF0001092BF001092CF00DF91CF91FF90EF9023
:102E0000DF90CF9008950E94E11ECE010E94010341
:102E100021E041E951E064E170E090E080E00E944F
:102E200096200E94CE1E6497D3CFCF93DF93C2E348
:102E3000D0E00E94E11E21E041EA51E06AE070E04A
:102E400090E080E00E94962021E040EB51E064E1B8
:102E500070E090E080E00E9496200E94CE1ECE019D
:102E60000E9401038FE59AEE0197F1F700C0000080
:102E70006496C63094E0D907E1F67D9B04C0DF91EB
:102E8000CF910C9429150E94941A8137C1F37E9B2F
:102E900006C01092EC03DF91CF910C94DF150E94D5
:102EA000941A823751F7F5CF90ED980F81E09A3060
:102EB00008F080E00895813689F0843679F087370C
:102EC00069F08F3359F091E9980F953038F099E90E
:102ED000980F81E0973018F080E0089581E0089520
:102EE0008053990B08956F927F928F929F92AF9229
:102EF000BF92CF92DF92EF92FF920F931F93CF93E7
:102F0000DF93E090CE03F090CF03870101501109C9
:102F10008DE0C82E85E0D82ED0E0C0E017FF19C0A4
:102F2000F3E0EF16F1040CF021961092CF0310920B
:102F3000CE03CE01DF91CF911F910F91FF90EF90C3
:102F4000DF90CF90BF90AF909F908F907F906F90C9
:102F50000895F601619071906F01B801012E000C87
:102F6000880B990B0E9490259B01AC0160E070E0FA
:102F700080E291E40E94F1264B015C01B301770CE1
:102F8000880B990B0E949025A50194010E9484262C
:102F90004B015C01BE01DD0F880B990B0E9490254F
:102FA0009B01AC01C501B4010E9470240E94582508
:102FB000EB0101501109B2CF6F927F928F929F92D5
:102FC000AF92BF92CF92DF92EF92FF920F931F9337
:102FD000CF93DF93E090CC03F090CD0387010150B5
:102FE00011098FE1C82E86E0D82ED0E0C0E017FF8F
:102FF00019C0F3E0EF16F1040CF021961092CD0306
:103000001092CC03CE01DF91CF911F910F91FF90D1
:10301000EF90DF90CF90BF90AF909F908F907F9078
:103020006F900895F601619071906F01B801012EC3
:10303000000C880B990B0E9490259B01AC0160E06D
:1030400070E080E291E40E94F1264B015C01B30143
:10305000770C880B990B0E949025A50194010E9482
:1030600084264B015C01BE01DD0F880B990B0E9489
:1030700090259B01AC01C501B4010E9470240E94FF
:103080005825EB0101501109B2CF8091D10388235B
:1030900009F488C0809160048F36E9F48091550767
:1030A000909156070E9447158091E0039091E103AB
:1030B000A091E203B091E3038093D2039093D303F2
:1030C000A093D403B093D50381E08093DB031092E7
:1030D000D1030C94A5148D36D1F4809155079091AD
:1030E00056070E9416148091E0039091E103A0918D
:1030F000E203B091E3038093D6039093D703A093A8
:10310000D803B093D90381E08093DA03E0CF8C3603
:1031100069F48091550790915607893E23E0920704
:10312000B4F69093060180930501D1CF873649F418
:1031300080915507909156079093EA038093E90395
:10314000C6CF883639F480915507909156070E9472
:10315000E814BDCF8A3659F460917D0570917E05E3
:1031600080915507909156070E94AF0EB0CF8B36D5
:1031700059F460917D0570917E058091550790917D
:1031800056070E94F40EA3CF893609F0A0CF6091B4
:103190007D0570917E0580915507909156070E949C
:1031A0004F0F95CF0895209160042F3631F48D3262
:1031B00021F481E08093D0030895909100019E3620
:1031C000F9F490ED980F9A3008F18D30C1F42F3654
:1031D00089F58091D003882369F10E947317919536
:1031E0008195910990935607809355071092D003CB
:1031F0001092CF031092CE0381E08093D103089503
:10320000933659F590ED980F9A30D8F42091CE036B
:103210003091CF03F901EE0FFF1FE35FFA4F8053A8
:10322000990B918380832F5F3F4F3093CF0320937F
:10323000CE0308950E947317909356078093550705
:10324000D7CF8D30E1F60E94731790935607809385
:1032500055078FE68093000108959F3681F690ED23
:10326000980F9A30A0F42091CC033091CD03F9014E
:10327000EE0FFF1FE15EF94F8053990B918380831E
:103280002F5F3F4F3093CD032093CC0308958D30B3
:1032900009F0B5CF0E94DC1790937E0580937D05E1
:1032A000ABCF8F3641F094E9980F923020F099E936
:1032B000980F923030F49EE6909300018093600462
:1032C000089597E9980F9330D8F793E6F5CFCF9309
:1032D000C82F813621F48CE6CF910C9446078436B2
:1032E00019F4CF910C949B02873729F40E94C102F4
:1032F000CF910C94B305833761F483E70E94561293
:1033000080910801882319F081E08093E803CF9130
:103310000895823719F4CF910C94DF15803739F472
:1033200080910801882371F0CF910C94411481376A
:1033300021F481E08093EB03EACF8F3331F488E608
:103340000E945612CF910C9433140E9493148C2F28
:10335000CF910C945119199B03C08CE60C9446072D
:1033600048990C949B02499B08C0809108018111E7
:1033700004C00E94C1020C94B30583B1881F882742
:10338000881F813041F49091080191118093E803E6
:1033900083E70C945612189B08C080910801811194
:1033A00002C00C9433140C9441147D9B04C081E042
:1033B0008093EB0308957E990C94DF150895809116
:1033C000F2039091F3032091F0033091F103822BEB
:1033D000932B2091EE033091EF03822B932B892BBB
:1033E00021F481E090910801911180E00895CF933C
:1033F0008091050190910601181619062CF00E9483
:10340000D416CF910C9415170E94941AC82F80914E
:10341000ED0381114CC08C2F0E945B17882319F09B
:103420008C2F0E9467198091EB03811137C0809126
:10343000080181112AC00E94C102209149053091E2
:103440004A0540914B0550914C050E946F242091F4
:10345000E4033091E5034091E6035091E7030E94B5
:103460006F246093E0037093E1038093E2039093F1
:10347000E3038091DB03811102C00E9495058091D6
:10348000DA03811102C00E94FB130E94AB190E9453
:103490005E160E94DF1981110E94F2080E94CE1E62
:1034A0000E9445180E949F16CF910C9456158C2FA0
:1034B0000E94D318F3CF0E9449030E948D160E94E8
:1034C000F7192FEF80E792E0215080409040E1F71C
:1034D00000C000008091EB03882389F30E94291526
:1034E00090E080E008958091E80080FFFCCF08958F
:1034F00081E08093D70080EA8093D80082E189BD83
:1035000009B400FEFDCF80E98093D8001092E0005E
:103510001092FF031092FC038CE08093E2007894F9
:1035200008958091FF0308959FB7F8948091FF0359
:10353000811104C09FBF8FEF9FEF089583E08093B8
:10354000E9002BE68091E80085FD05C082FFF2CFFF
:103550002093E800F7CF8091F1002091E80025FD4D
:1035600003C02BE62093E8009FBF90E008952FB79B
:10357000F8948091FF03811103C080E02FBF08956C
:1035800083E08093E9008091F2008111F7CF909160
:10359000E80092FFF2CF892F807295FDEECF9BE677
:1035A0009093E800EBCF8091FF03882359F08FB709
:1035B000F89493E09093E9002BE69091E80095FD54
:1035C00002C08FBF08952093E800F7CF9091FF03CA
:1035D000911102C08FEF08959FB7F89424E02093D3
:1035E000E9002091FD03222341F02091E80025FD10
:1035F00002C09FBFEFCF1092FD032091E400275E31
:1036000034E04091E80045FD12C09FBF9091E40076
:10361000921304C081E08093FD03DCCF9091FF03FF
:103620009923C1F29FB7F8943093E900EACF8093D1
:10363000F1008091E80085FD03C08AE38093E800F3
:1036400085E08093FE039FBF80E008959091FF0383
:10365000992351F09FB7F89424E02093E90020913A
:10366000E80025FD03C09FBF8FEF08958093F10010
:103670008091E80085FD03C08AE38093E80085E03F
:103680008093FE039FBF80E008952091FF032111E6
:1036900002C08FEF08952FB7F89434E03093E9001B
:1036A0003091FD03332341F03091E80035FD02C035
:1036B0002FBFEFCF1092FD0334E040E45AE3A5E0C2
:1036C0006115710511F480E00895E091E400E75E72
:1036D000F091E800F5FD12C02FBF2091E4002E13F9
:1036E00004C081E08093FD03D4CF2091FF03222307
:1036F00081F22FB7F8943093E900EACFE091F2001D
:10370000B42FBE1BB617170611F008F0B62FEB2F1B
:10371000F0E06E1B7F0BB13408F03FC1E057F44D71
:103720000C94A628FC0181918093F100CF01FC014B
:1037300081918093F100CF01FC0181918093F10090
:10374000CF01FC0181918093F100CF01FC018191B7
:103750008093F100CF01FC0181918093F100CF01B2
:10376000FC0181918093F100CF01FC018191809354
:10377000F100CF01FC0181918093F100CF01FC01A8
:1037800081918093F100CF01FC0181918093F10040
:10379000CF01FC0181918093F100CF01FC01819167
:1037A0008093F100CF01FC0181918093F100CF0162
:1037B000FC0181918093F100CF01FC018191809304
:1037C000F100CF01FC0181918093F100CF01FC0158
:1037D00081918093F100CF01FC0181918093F100F0
:1037E000CF01FC0181918093F100CF01FC01819117
:1037F0008093F100CF01FC0181918093F100CF0112
:10380000FC0181918093F100CF01FC0181918093B3
:10381000F100CF01FC0181918093F100CF01FC0107
:1038200081918093F100CF01FC0181918093F1009F
:10383000CF01FC0181918093F100CF01FC018191C6
:103840008093F100CF01FC0181918093F100CF01C1
:10385000FC0181918093F100CF01FC018191809363
:10386000F100CF01FC0181918093F100CF01FC01B7
:1038700081918093F100CF01FC0181918093F1004F
:10388000CF01FC0181918093F100CF01FC01819176
:103890008093F100CF01FC0181918093F100CF0171
:1038A000FC0181918093F100CF01FC018191809313
:1038B000F100CF01FC0181918093F100CF01FC0167
:1038C00081918093F100CF01FC0181918093F100FF
:1038D000CF01FC0181918093F100CF01FC01819126
:1038E0008093F100CF01FC0181918093F100CF0121
:1038F000FC0181918093F100CF01FC0181918093C3
:10390000F100CF01FC0181918093F100CF01FC0116
:1039100081918093F100CF01FC0181918093F100AE
:10392000CF01FC0181918093F100CF01FC018191D5
:103930008093F100CF01FC0181918093F100CF01D0
:10394000FC0181918093F100CF01FC018191809372
:10395000F100CF01FC0181918093F100CF01FC01C6
:1039600081918093F100CF01FC0181918093F1005E
:10397000CF01FC0181918093F100CF01FC01819185
:103980008093F100CF01FC0181918093F100CF0180
:10399000FC0181918093F100CF01FC018191809322
:1039A000F100CF01E091E800E5FF5093E800A0931B
:1039B000FE032FBF85CE8FB7F8949091FE03992315
:1039C00041F094E09093E9009AE39093E80010921C
:1039D000FE038FBF089560912501709126018091AB
:1039E00027019091280108958091290108958091DF
:1039F0002A01089580912B0108958091FC03089578
:103A00009FB7F8942091FF03211103C09FBF8FEF50
:103A1000089522E02093E9002091E80025FFF6CFE9
:103A200021EA2093F10020E22093F1001092F100AE
:103A30001092F1001092F1001092F10021E0209319
:103A4000F1001092F1008093F1008AE38093E80086
:103A50009FBF80E008951F921FB61F9211248F937D
:103A60009F938091E1001092E10083FF11C01092BA
:103A7000E90091E09093EB001092EC0092E19093BA
:103A8000ED0098E09093F0001092FF031092FC0379
:103A900082FF13C08091FF03882379F08091FE0399
:103AA000882359F081508093FE03811106C084E081
:103AB0008093E9008AE38093E8009F918F911F90A3
:103AC0001FBE1F9018951F920F920FB60F921124D0
:103AD000EF92FF920F931F932F933F934F935F9318
:103AE0006F937F938F939F93AF93BF93CF93DF9306
:103AF000EF93FF931092E9008091E80083FF72C07A
:103B0000D091F100C091F100E090F1008091F100BE
:103B1000F82E0091F1008091F100182F8091F100B2
:103B20009091F10022EF2093E800C63009F066C0C2
:103B30002EE432E0F90145915491E416F50609F0BE
:103B40004AC0F9013296459154910417150709F0BE
:103B500042C0F901349645915491F9013696E491A9
:103B60008F3F910519F010F08FEF90E0E81708F4FF
:103B70008E2F3EEF9091E800292F2570D9F392FD0A
:103B800013C0982F813108F090E1FA01292F2111FB
:103B90002FC0490F511DE82FE91B9E2F3093E800DD
:103BA000E11124C0803110F5FF91EF91DF91CF91A9
:103BB000BF91AF919F918F917F916F915F914F9145
:103BC0003F912F911F910F91FF90EF900F900FBE9B
:103BD0000F901F901895295F3F4F42E02837340718
:103BE00009F0A8CF81E28093EB00DECF892FC2CF0E
:103BF00064916093F10021503196C9CFC53051F4E2
:103C00008EEF8093E8000E94731A8E2D8068809357
:103C1000E300CACFC93069F5D111E4CFE092FF03C8
:103C20001092FC031092FE038EEF8093E80021E0D7
:103C30008DE093E02093E900AC014F5F5F4FFC0102
:103C400034913093EB00332391F0FA014491409387
:103C5000EC003196E4910396E093ED002F5F253060
:103C600049F78EE18093EA001092EA009DCFCA01E5
:103C7000F5CFC83069F4D03809F0B4CF0E94731A78
:103C80008091FF038093F1008EEF8093E8008CCF4A
:103C9000C13289F4D13A09F0A5CF0E94731A85E2A6
:103CA00091E0FC012191CF012093F100F1E08C32F1
:103CB0009F07B9F7E9CFC032B1F4D13209F092CF02
:103CC0008091E80082FFFCCF85E291E02091F10035
:103CD000FC012193CF01F1E08C329F07B9F78BEF04
:103CE0008093E800D1CFC23241F4D13209F07ACFCB
:103CF000E092FC030E94731AC7CFC11112C00E9448
:103D0000731AD23849F40093E900C091EB00C5FB67
:103D1000CC27C0F91092E900C093F1001092F10095
:103D2000B3CF8C2F8D7F813009F05CCFD23009F07A
:103D300059CFEF2809F056CF0F778FEF800F8430DF
:103D400008F050CF8EEF8093E8000093E900C33075
:103D500009F448CF89E18093EB0081E090E001C055
:103D6000880F0A95EAF77ECF87E880937A00089556
:103D7000982F9F71906490937C00807280937B0059
:103D800080917A00806480937A0080917A0086FD29
:103D9000FCCF80917800909179000895CF93DF93C4
:103DA00060E080E00E941621C7E5D7E0699181E0DC
:103DB0000E94BB2089E0CF34D807C1F7DF91CF91B3
:103DC0000895E7E5F7E0119289E0EF34F807D9F7B5
:103DD000089584359105F8F460337105E0F49B0192
:103DE00073E0359527957A95E1F774E5729FF001B8
:103DF000739FF00D1124E80FF91FE95AF84F8081E5
:103E0000677021E030E001C0220F6A95EAF7452B88
:103E100019F0282B2083089520952823FBCF2F927B
:103E20003F924F925F926F927F928F929F92AF924A
:103E3000BF92CF92DF92EF92FF920F931F93CF9397
:103E4000DF93CDB7DEB728970FB6F894DEBF0FBE6D
:103E5000CDBF98878F837B016A011901841795076D
:103E6000A1F56B0113C031E0C31AD1080FC0C21411
:103E7000D30494F0A801B6018F8198850E94E91EB1
:103E8000E214F30484F72FEFC21AD20AE214F30407
:103E900074F72C143D0474F728960FB6F894DEBF1F
:103EA0000FBECDBFDF91CF911F910F91FF90EF908B
:103EB000DF90CF90BF90AF909F908F907F906F904A
:103EC0005F904F903F902F9008956217730701F510
:103ED000AF80B88414C021E0A21AB10810C0AC149D
:103EE000BD04D4F2A801B701C5010E94E91E8F816B
:103EF00098858C159D057CF79FEFA91AB90A8F81CB
:103F000098858C159D055CF7CA14DB045CF7C4CF5B
:103F10002F8138854217530754F48F2D7101262EB7
:103F2000382E9F81888558874F83C92ED82EC60189
:103F30002F813885821B930B9C838B83C1018E1943
:103F40009F099A838983BC01990F880B990B0E9462
:103F500090254B015C012B813C81B901330F880B0B
:103F6000990B0E9490259B01AC01C501B4010E94F0
:103F7000E6242B013C0120E030E0A9010E947F26CD
:103F800087FF04C077FA709477F87094812C912C95
:103F900054018A81881F8827881F282F30E03E839C
:103FA0002D838B819C81181619060CF057C02F8128
:103FB0003885C216D3060CF46FCFA801B7018F81E4
:103FC00098850E94E91EA3019201C501B4010E94D7
:103FD00070244B015C0120E030E040E05FE30E9490
:103FE0007F2687FD08C089819A811816190674F406
:103FF0002E143F0474F42B813C81121613063CF5F9
:104000008F819885019698878F83CBCFE214F30434
:1040100094F3A801B7018F8198850E94E91E81E081
:1040200090E029813A811216130614F090E080E0A6
:104030002D813E81821B930BE80EF91E20E030E0BB
:1040400040E85FE3C501B4010E946F24C2CF2F8115
:1040500038852150310938872F83A3CF8F819885E8
:104060008C159D050CF0A9CF17CF4F925F926F92E0
:104070007F928F929F92AF92BF92CF92DF92EF92F8
:10408000FF920F931F93CF93DF935B01390140524F
:10409000550B65E0649F9001659F300D1124A901C7
:1040A000495E5C4F7A018C012C0155E0450E511C94
:1040B00088248394912CF701C4906114710409F44D
:1040C000C094D0E0C0E0D12CA4010C2E02C0440F5B
:1040D000551F0A94E2F74C215D210C2E02C0559524
:1040E00047950A94E2F7B5016C0F7D1FC8010E9445
:1040F000E91E2196C830D10539F74FEFE41AF40ACA
:104100000F5F1F4F04151505B1F6DF91CF911F9179
:104110000F91FF90EF90DF90CF90BF90AF909F9066
:104120008F907F906F905F904F900895CF92DF9225
:10413000EF92FF920F931F93CF93DF937B018A013E
:104140006901D82FC0E0F801EC0FF11D4081411149
:1041500009C0DF91CF911F910F91FF90EF90DF90F9
:10416000CF9008959601B7018D2F90E00E943520E1
:10417000DB5FCF5FE8CF95B19F7D40E2849F9001E8
:104180001124922B95B95F9887E090E070E08F98AA
:104190009B01082E02C0359527950A94E2F720FF6F
:1041A00006C02E9A8F9A019790F75F9A08952E98DD
:1041B000F9CFCF93C82F579A249A259A269A879A8F
:1041C0002C985F9A2C9A61E280E00E94BB206C2FB1
:1041D000606880E00E94BB2064E080E00E94BB2019
:1041E00063E180E00E94BB206CE080E00E94BB2085
:1041F00060E280E00E94BB206CE080E00E94BB2077
:1042000060E480E00E94BB2060E880E0CF910C94E5
:10421000BB20CF93DF93C8EFD1E060E081E00E9444
:10422000BB202197D1F7DF91CF910895CF93C82F6D
:10423000606480E00E94BB206C2F606880E0CF91BA
:104240000C94BB20AFE0B0E0E8E2F1E20C94AC28C3
:104250006C011B014A01FC0117821682838181FFD8
:1042600034C39E012F5F3F4F3901F6019381F10165
:1042700093FD859193FF81911F01882309F4D6C294
:10428000853239F493FD859193FF81911F01853229
:1042900039F4B60190E00E94412A54014501E5CF6E
:1042A000F12C512C00E0003238F48B3209F190F4FB
:1042B0008032F9F0833209F107FD34C020ED280F78
:1042C0002A3020F506FF1BC0FAE0FF9E200D1124C6
:1042D000F22E05C08D3279F0803371F70160F10163
:1042E00093FD859193FF81911F018111DCCF1AC04D
:1042F00002600460F4CF0860F2CF0061F0CF3AE0D2
:10430000539E200D1124522E0062E9CF8E3221F4EB
:1043100006FD8CC20064E3CF8C3611F40068DFCF59
:104320008836E9F29BEB980F933008F05CC000618F
:10433000805E06FD02C046E0F42E102F1F73853606
:1043400009F058C0106417FF5EC08F2D9BE39F15C6
:1043500008F48BE344244394480E27E0F401619170
:104360007191819191915F01042DA3010E945329C4
:104370004C01F981FC87F0FF03C00DE2F3FF07C099
:104380000BE211FD04C0012F047012FD00E22C8528
:104390002C70E22E09F457C001119AC2F3E0E12C0F
:1043A000F515A0F483E0E52CE81A13FD08C0B6016A
:1043B00080E290E00E94412AEA94E110F8CF0023C5
:1043C00029F0B601802F90E00E94412A3C852CE420
:1043D000822E21E0922E33FD04C090E5892E91E0DB
:1043E000992E107122C09BE9980F933008F034C1C8
:1043F0000F7E9FCF863611F41068A5CFFF2009F4F9
:10440000A2CFFA94A0CFE7E02F2DEF1518F427E004
:1044100037E0F32E412CA2CF11118052B60190E06B
:104420000E94412A8FEF881A980AF4018491811121
:10443000F3CFEE2009F432CFB60180E290E00E9483
:10444000412AEA94F6CF17FF70C0480CFC85F4FFB0
:1044500004C08A81813309F44A9414140CF087C093
:1044600028E0241510F488E0482E85E090E017FF3E
:1044700006C0C40197FE02C090E080E001960111E1
:104480000196FF2031F02F2D30E02F5F3F4F820F3C
:10449000931F5816190619F014F0E52CE81A812F0D
:1044A000897011F4E11068C0002329F0B601802F53
:1044B00090E00E94412A13FD02C0E11064C017FF82
:1044C0007DC0840197FE02C010E000E0C4018419A1
:1044D00091092C016F2D70E0EE27FF27E61BF70BEB
:1044E000FF87EE87801691060CF454C040165106E3
:1044F0000CF050C0F401E01BF10BE60DF71D8181BB
:10450000015011092E853F85021713070CF444C092
:10451000B60190E00E94412A0F3F100719F7B6013B
:104520008EE290E00E94412ADDCF16FD9ECFEF2D56
:10453000F0E0E815F90534F03CEF83163FEF930601
:104540000CF010683296E60DF71D01C0FA94FF20BA
:1045500019F082918033D1F317FF87CF442443941D
:104560004F0CF814190431F02CF0F8187ECF4424C5
:1045700043947BCFF12C79CFB60180E290E00E948A
:10458000412AEA948FCFB60180E390E00E94412A4D
:10459000EA9493CF80E3B4CF8016910641F49A81D8
:1045A000963350F4953319F49C8594FF05C0B601F9
:1045B00090E00E94412A3DCF81E3F9CF8A81813387
:1045C00019F0EC85EF7EEC87B60190E00E94412A5D
:1045D000FF20A9F0B6018EE290E00E94412AF394F8
:1045E000F394E2E001E00E0FE60DF72DF11D80815E
:1045F000B60190E00E94412AE02F0F11F3CF85E62B
:1046000090E014FF02C085E490E0B6010E94412AC8
:1046100097FC06C081149104C1F4FC85F4FF15C019
:104620009194819491088DE2B60190E00E94412A14
:1046300080E33AE08316910454F4B60190E00E94BE
:10464000412AB601C401C096B4CF8BE2EDCF8F5F93
:104650002AE0821A9108EDCF8336B1F0833759F101
:10466000833509F055C0F401819091905F016F2D61
:1046700070E006FD02C06FEF7FEFC4010E942B2A9D
:104680009D878C8700680DC0540182E0A80EB11C84
:10469000F4018081898321E030E03D872C8743014C
:1046A0000F7703FD06C02C853D855216130609F0D1
:1046B00090F4E52C28C0F401819091905F016F2D5A
:1046C00070E006FD02C06FEF7FEFC4010E94362A42
:1046D0009D878C87E5CFB60180E290E00E94412A59
:1046E0005A94E1CFF40107FD859107FF81914F01B5
:1046F000B60190E00E94412AE110EA948C859D85E4
:1047000001979D878C87EC85FD85EF2B59F791CE1E
:10471000843619F0893609F06EC0F40107FF63C0D2
:1047200061917191819191915F01102F1F7697FF97
:1047300008C090958095709561957F4F8F4F9F4FE2
:1047400010682AE030E0A3010E94CD2A882E861846
:10475000982C012F16FF0AC00E7F8F1438F414FF17
:1047600004C012FD02C0012F0E7E9F2C04FF85C0E5
:10477000FE01E80DF11D8081803309F077C0097ECC
:10478000F02FF870EF2E03FD87C000FF81C0F82CDA
:10479000951410F4F50CF91804FF84C0B60180E3F9
:1047A00090E00E94412A02FF09C088E790E001FFE3
:1047B00002C088E590E0B6010E94412A8F1408F4F7
:1047C0007DC08A94082D10E00F5F1F4F060D171D46
:1047D000F80182918F01B60190E00E94412A0615EE
:1047E0001705B1F726CE619171915F01072E000C7C
:1047F000880B990B9ACF102F853791F41F7E2AE0F2
:1048000030E0F40117FF2CC0619171918191919179
:104810005F01A3010E94CD2A882E86181F7798CFAA
:10482000197F8F36D1F048F4883591F0F6018681F2
:1048300097812F96E2E10C94C828803739F08837A9
:10484000A9F714FD146020E130E0DBCF1061F9CF4F
:1048500004FD166020E132E0D4CF28E030E0D1CF73
:10486000619171915F0190E080E0D3CF02FD02C0C1
:10487000939486CF9394939483CF802F867809F472
:104880007FCFF6CFB60180E290E00E94412A939458
:104890009514C0F3E12C80CFE52CE918951408F4A9
:1048A0007BCFF8CF802F867809F488CF8BE201FF89
:1048B00080E207FD8DE2B60190E07ECFB60180E395
:1048C00090E00E94412AFA9479CF8FEF9FEFB1CF09
:1048D00024E0E12C251508F074CD84E064CD505817
:1048E000BB27AA270E9487240C9431260E94F82512
:1048F00038F00E94FF2520F039F49F3F19F426F488
:104900000C94F5250EF4E095E7FB0C94EF25E92FC8
:104910000E94562658F3BA17620773078407950753
:1049200020F079F4A6F50C9478260EF4E0950B2E81
:10493000BA2FA02D0B01B90190010C01CA01A001F1
:104940001124FF27591B99F0593F50F4503E68F14C
:104950001A16F040A22F232F342F4427585FF3CF8D
:10496000469537952795A795F0405395C9F77EF45E
:104970001F16BA0B620B730B840BBAF09150A1F0A7
:10498000FF0FBB1F661F771F881FC2F70EC0BA0F2D
:10499000621F731F841F48F4879577956795B795B5
:1049A000F7959E3F08F0B0CF9395880F08F09927B0
:1049B000EE0F9795879508950E94CB2508F481E026
:1049C00008950E940826E3950C9442260E94FA243A
:1049D0000C9431260E94FF2558F00E94F82540F0E3
:1049E00029F45F3F29F00C94EF2551110C9479269E
:1049F0000C94F5250E94562668F39923B1F35523AC
:104A000091F3951B550BBB27AA27621773078407E1
:104A100038F09F5F5F4F220F331F441FAA1FA9F377
:104A200035D00E2E3AF0E0E832D091505040E69565
:104A3000001CCAF72BD0FE2F29D0660F771F881FC6
:104A4000BB1F261737074807AB07B0E809F0BB0BB9
:104A5000802DBF01FF2793585F4F3AF09E3F5105CD
:104A600078F00C94EF250C9479265F3FE4F3983EA0
:104A7000D4F3869577956795B795F7959F5FC9F7B6
:104A8000880F911D9695879597F90895E1E0660F37
:104A9000771F881FBB1F621773078407BA0720F0B0
:104AA000621B730B840BBA0BEE1F88F7E095089519
:104AB0000E945F256894B1110C94792608950E9494
:104AC0005E2688F09F5798F0B92F9927B751B0F01C
:104AD000E1F0660F771F881F991F1AF0BA95C9F782
:104AE00014C0B13091F00E947826B1E008950C9482
:104AF0007826672F782F8827B85F39F0B93FCCF335
:104B0000869577956795B395D9F73EF490958095FE
:104B1000709561957F4F8F4F9F4F0895E89409C01E
:104B200097FB3EF490958095709561957F4F8F4FE0
:104B30009F4F9923A9F0F92F96E9BB279395F695F6
:104B4000879577956795B795F111F8CFFAF4BB0F74
:104B500011F460FF1BC06F5F7F4F8F4F9F4F16C0D8
:104B6000882311F096E911C0772321F09EE8872F62
:104B7000762F05C0662371F096E8862F70E060E01E
:104B80002AF09A95660F771F881FDAF7880F969597
:104B9000879597F90895990F0008550FAA0BE0E83B
:104BA000FEEF16161706E807F907C0F012161306EF
:104BB000E407F50798F0621B730B840B950B39F42F
:104BC0000A2661F0232B242B252B21F408950A2695
:104BD00009F4A140A6958FEF811D811D089597F9D5
:104BE0009F6780E870E060E008959FEF80EC089593
:104BF00000240A94161617061806090608950024BC
:104C00000A94121613061406050608950C94F52549
:104C10000E945E26D8F3E894E0E0BB279F57F0F0AF
:104C20002AED3FE049EC06C0EE0FBB0F661F771F71
:104C3000881F28F0B23A62077307840728F0B25A37
:104C4000620B730B840BE3959A9572F7803830F4FE
:104C50009A95BB0F661F771F881FD2F790480C9458
:104C60008527092E0394000C11F4882352F0BB0F02
:104C700040F4BF2B11F460FF04C06F5F7F4F8F4F74
:104C80009F4F0895EF93E0FF07C0A2EA2AED3FE0AF
:104C900049EC5FEB0E9487240E9431260F90039419
:104CA00001FC9058ECEAF0E00C94B82757FD9058BE
:104CB000440F551F59F05F3F71F04795880F97FBE0
:104CC000991F61F09F3F79F087950895121613069A
:104CD0001406551FF2CF4695F1DF08C016161706C9
:104CE0001806991FF1CF86957105610508940895FE
:104CF000E894BB2766277727CB0197F908950E9490
:104D0000CB2508F48FEF08950E9497260C94312646
:104D10000E94F82538F00E94FF2520F0952311F01D
:104D20000C94EF250C94F52511240C9479260E94FF
:104D3000562670F3959FC1F3950F50E0551F629F63
:104D4000F001729FBB27F00DB11D639FAA27F00DE4
:104D5000B11DAA1F649F6627B00DA11D661F829F0B
:104D60002227B00DA11D621F739FB00DA11D621FF0
:104D7000839FA00D611D221F749F3327A00D611D0D
:104D8000231F849F600D211D822F762F6A2F1124EF
:104D90009F5750409AF0F1F088234AF0EE0FFF1F22
:104DA000BB1F661F771F881F91505040A9F79E3F79
:104DB000510580F00C94EF250C9479265F3FE4F3C5
:104DC000983ED4F3869577956795B795F795E795CF
:104DD0009F5FC1F7FE2B880F911D9695879597F9D8
:104DE0000895FA01EE0FFF1F309621053105A1F15C
:104DF0006115710561F48038BFE39B0749F1689440
:104E00009038810561F08038BFEF9B0741F099230E
:104E10004AF5FF3FE1053105210519F1E8940894B1
:104E2000E795D901AA2329F4AB2FBE2FF85FD0F361
:104E300010C0FF5F70F4A695E0F7F73950F019F055
:104E4000FF3A38F49F779F930DD00F9007FC90584E
:104E5000089546F00C94F52560E070E080E89FE34B
:104E600008954FE79F775F934F933F932F930E944F
:104E700016282F913F914F915F910E9484260C94A8
:104E800051279F930E9408260F9007FCEE5F0C9419
:104E9000422629F416F00C94EF250C9478260C94F5
:104EA000F5250E945E26A8F39638A0F707F80F9222
:104EB000E8942BE33AEA48EB5FE70E949A260F92C8
:104EC0000F920F924DB75EB70F920E945E28EAECE8
:104ED000F0E00E9491274F915F91EF91FF91E5954E
:104EE000EE1FFF1F49F0FE57E0684427EE0F441FF6
:104EF000FA95E1F74195550B0E94D8270F9007FED0
:104F00000C94CC2708959F3F31F0915020F4879561
:104F100077956795B795880F911D9695879597F921
:104F20000895DF93CF931F930F93FF92EF92DF9239
:104F30007B018C01689406C0DA2EEF010E9497264F
:104F4000FE01E894A5912591359145915591A6F3DF
:104F5000EF010E948724FE019701A801DA9469F706
:104F6000DF90EF90FF900F911F91CF91DF91089507
:104F70009F938F937F936F93FF93EF939B01AC016C
:104F80000E948426EF91FF910E9491272F913F91DB
:104F90004F915F910C9484269B01AC0160E070E01E
:104FA00080E89FE30C94E6240C94EF250C9483276F
:104FB0000E945E26D8F39923C9F3940F511DA3F3E1
:104FC0009150504094F059F0882332F0660F771FCB
:104FD000881F91505040C1F79E3F51052CF7880F14
:104FE000911D9695879597F908955F3FACF0983E8F
:104FF0009CF0BB27869577956795B79508F4B160C7
:105000009395C1F7BB0F58F711F460FFE8CF6F5FBE
:105010007F4F8F4F9F4FE3CF0C94792616F00C945F
:1050200083270C94F52568940C94EF250E945E2646
:10503000A8F39923C1F3AEF3DF93CF931F930F939C
:10504000FF92C92FDD2788232AF02197660F771F4B
:10505000881FDAF720E030E040E85FEB9FE3883913
:1050600020F0803E38F021968F770E947024E2EF86
:10507000F0E004C00E947024EFE1F1E00E9491276B
:105080008B01BE01EC01FB2E6F5771097595771FDF
:10509000880B990B0E94902528E132E741E35FE3FA
:1050A0000E949726AF2D9801AE01FF900F911F919E
:1050B000CF91DF910E9487240C943126FA01DC0104
:1050C000AA0FBB1F9B01AC01BF5728F4222733272F
:1050D0004427507820C0B75190F4AB2F0024469558
:1050E00037952795011CA395D2F3002071F0220F6C
:1050F000331F441FB395DAF30ED00C946F24613044
:105100007105A0E88A07B94630F49B01AC01662717
:10511000772788279078309621F020833183428347
:105120005383089597FB072E16F4009407D077FD5C
:1051300009D00E94E32807FC05D03EF490958195A4
:105140009F4F0895709561957F4F0895EE0FFF1F53
:105150000590F491E02D09942F923F924F925F9227
:105160006F927F928F929F92AF92BF92CF92DF9277
:10517000EF92FF920F931F93CF93DF93CDB7DEB7DC
:10518000CA1BDB0B0FB6F894DEBF0FBECDBF099470
:105190002A88398848885F846E847D848C849B84C7
:1051A000AA84B984C884DF80EE80FD800C811B81D5
:1051B000AA81B981CE0FD11D0FB6F894DEBF0FBE04
:1051C000CDBFED010895AA1BBB1B51E107C0AA1F6B
:1051D000BB1FA617B70710F0A61BB70B881F991F98
:1051E0005A95A9F780959095BC01CD0108958F92AD
:1051F0009F92AF92BF92CF92DF92EF92FF92CF93A6
:10520000DF93EC01688179818A819B816115710549
:105210008105910521F464E279ED8BE597E02DE1BC
:1052200033EF41E050E00E942B2B49015A019B01D2
:10523000AC01A7EAB1E40E944A2B6B017C01ACEE01
:10524000B4EFA50194010E94582BDC01CB018C0D19
:105250009D1DAE1DBF1DB7FF03C00197A109B0483A
:1052600088839983AA83BB839F77DF91CF91FF9037
:10527000EF90DF90CF90BF90AF909F908F90089568
:105280000E94F72808958CE291E00E94F728089583
:10529000B0E0A0E080932C0190932D01A0932E010B
:1052A000B0932F010895283008F027E03327DA0162
:1052B000990F311D87FD916000966105710539F4E4
:1052C00032602E5F3D9330E32A95E1F708959F3FCA
:1052D00030F080387105610509F03C5F3C5F3D931B
:1052E000913008F08068911DDF93CF931F930F9347
:1052F000FF92EF92192F987F9695E92F96959695A4
:10530000E90FFF27E255FE4F99273327EE24FF24AC
:10531000A701E70105900894079428F4360FE71ECB
:10532000F81E491F511D660F771F881F991F06948D
:10533000A1F70590079428F4E70EF81E491F561FA1
:10534000C11D770F881F991F661F0694A1F705904E
:10535000079428F4F80E491F561FC71FD11D880F48
:10536000991F661F771F0694A1F70590079420F4F4
:10537000490F561FC71FD81F990F661F771F881F19
:105380000694A9F784911095177041F0D695C795AA
:1053900057954795F794E7941A95C1F7E4E5F1E03E
:1053A00068941590159135916591959105907FE2DE
:1053B0007395E118F10A430B560BC90BD009C0F7DE
:1053C000E10CF11E431F561FC91FD01D7EF4703320
:1053D00011F48A95E6CFE894015030F0080F0AF4F2
:1053E0000027021708F4202F2395022F7A3328F084
:1053F00079E37D932A95E9F710C07D932A9589F684
:10540000069497956795379517951794E118F10AC3
:10541000430B560BC90BD00998F023957E917395D9
:105420007A3308F070E37C932013B8F77E917061B3
:105430007D9330F0839571E37D9370E32A95E1F7D6
:105440001124EF90FF900F911F91CF91DF91992739
:1054500087FD90950895FC01059061507040011002
:10546000D8F7809590958E0F9F1F0895FC0161508D
:10547000704001900110D8F7809590958E0F9F1F76
:1054800008950F931F93CF93DF93182F092FEB01EC
:105490008B8181FD09C01FEF0FEF812F902FDF91CE
:1054A000CF911F910F91089582FF14C02E813F81EB
:1054B0008C819D81281739073CF4E881F981CF015F
:1054C00001969983888310838E819F8101969F83A3
:1054D0008E83E3CFE885F985812F0995892BA1F388
:1054E000DACFAEE0B0E0E7E7FAE20C94BA280D8933
:1054F0001E898F89988D26E02C831A83098397FF54
:1055000002C080E090E801979E838D83AE01455EE6
:105510005F4F698D7A8DCE0101960E9422214D81C7
:105520005E8157FD0AC02F813885421753070CF45E
:105530009A01020F131FF80110822E96E4E00C94DA
:10554000D628AEE0B0E0E7EAFAE20C94BA288C0183
:10555000FA0186E08C831A83098377FF02C060E03A
:1055600070E8615071097E836D83A901BF01CE018E
:1055700001960E9422214D815E8157FD0AC02F8134
:105580003885421753070CF49A01020F131FF801D4
:1055900010822E96E4E00C94D628FA01AA2728302F
:1055A00051F1203181F1E8946F936E7F6E5F7F4FF0
:1055B0008F4F9F4FAF4FB1E03ED0B4E03CD0670F6C
:1055C000781F891F9A1FA11D680F791F8A1F911DBF
:1055D000A11D6A0F711D811D911DA11D20D009F40F
:1055E00068943F912AE0269F11243019305D319351
:1055F000DEF6CF010895462F4770405D4193B3E03A
:105600000FD0C9F7F6CF462F4F70405D4A3318F0E0
:10561000495D31FD4052419302D0A9F7EACFB4E091
:10562000A6959795879577956795BA95C9F7009749
:105630006105710508959B01AC010A2E06945795EA
:10564000479537952795BA95C9F7620F731F841F41
:10565000951FA01D0895052E97FB1EF400940E942F
:10566000422B57FD07D00E945D2B07FC03D04EF460
:105670000C94422B50954095309521953F4F4F4FBC
:105680005F4F089590958095709561957F4F8F4FEE
:105690009F4F08950E947F2BA59F900DB49F900D62
:1056A000A49F800D911D11240895B7FF0C944A2BDF
:1056B0000E944A2B821B930B0895A1E21A2EAA1B6B
:1056C000BB1BFD010DC0AA1FBB1FEE1FFF1FA217B2
:1056D000B307E407F50720F0A21BB30BE40BF50BAF
:1056E000661F771F881F991F1A9469F76095709538
:1056F000809590959B01AC01BD01CF010895A29FBB
:10570000B001B39FC001A39F700D811D1124911D95
:10571000B29F700D811D1124911D0895F894FFCF43
:10572000D21CCD1CC81CC31CBE1CB91CB41CAF1C95
:10573000AA1CA51CA01C9B1C961C911C8C1C871CC5
:10574000821C7D1C781C731C6E1C691C641C5F1CF5
:105750005A1C551C501C4B1C461C411C3C1C371C25
:10576000321C2D1C281C231C1E1C191C141C0F1C55
:105770000A1C051C001CFB1BF61BF11BEC1BE71B8A
:10578000E21BDD1BD81BD31BCE1BC91BC41BBF1BBD
:10579000BA1BB51BB01BAB1BA61BA11B9C1B971BED
:0257A000921B5A
:1057A200640000803F05000101BF01B9026E313083
:1057B200303536353133003F034903630395039A8D
:1057C20003C5035A0000E1000000000801000000C8
:1057D20027002D0004000200010001000400030064
:1057E2000E0002000F3CF03D47414D45204F56450B
:1057F20052005354415455530047616D65207374F0
:1058020061727465640053504143452046494748DC
:1058120054455200253032643A25303264004C69D6
:1058220066653A2025640053636F72653A202564E9
:1058320000472041204D2045204F20562045205230
:1058420000517569743A72696768742062746E00F7
:1058520052657365743A6C6566742062746E000DED
:105862000A612D73686970206C6566740D0A642D77
:10587200736869702072696768740D0A772D6669AA
:10588200726520706C61736D610D0A732D73656EA4
:1058920064207374617475730D0A722D7265736579
:1058A200740D0A702D70617573650D0A712D717515
:1058B20069740D0A742D7365742061696D0D0A6D2A
:1058C2002D7365742073706565640D0A6C2D7365A4
:1058D20074206C6966650D0A672D736574207363A5
:1058E2006F72650D0A3F2D74686973206D656E7560
:1058F2000D0A682D6D6F7665207368697020746F6C
:1059020020636F6F72640D0A6A2D706C616365208B
:1059120061737465726F696420617420636F6F7262
:10592200640D0A6B2D706C61636520626F756C6427
:10593200657220617420636F6F72640D0A692D7045
:105942006C61636520667261676D656E7420617457
:1059520020636F6F72640D0A000D0A2573200D0A11
:1059620054696D653A20253032643A25303264201C
:105972000D0A4C6966653A202564200D0A53636F4F
:1059820072653A202564200D0A41737465726F694D
:10599200643A202564200D0A426F756C65723A20C4
:1059A2002564200D0A467261676D656E743A202582
:1059B20064200D0A506C61736D613A202564200DDC
:1059C2000A5475727265742041696D3A202564200B
:1059D2000D0A53706565643A202566200D0A002081
:1059E200662066666620662000206262622062622D
:1059F200626262626262626220626262202020628D
:105A020020200020616161616120616161616161E9
:105A120061616161616161616161616161616120B5
:105A2200616161616120202061616120202020206C
:105A3200612020200070707070006666666666667F
:105A4200666666666666666620666666666666663A
:105A520066666666662020206666666666666666B6
:0A5A6200666620200074747474005E
:00000001FF
